{
  "contractName": "KycContract",
  "abi": [
    {
      "inputs": [],
      "stateMutability": "nonpayable",
      "type": "constructor"
    },
    {
      "inputs": [
        {
          "internalType": "address",
          "name": "owner",
          "type": "address"
        }
      ],
      "name": "OwnableInvalidOwner",
      "type": "error"
    },
    {
      "inputs": [
        {
          "internalType": "address",
          "name": "account",
          "type": "address"
        }
      ],
      "name": "OwnableUnauthorizedAccount",
      "type": "error"
    },
    {
      "anonymous": false,
      "inputs": [
        {
          "indexed": true,
          "internalType": "address",
          "name": "user",
          "type": "address"
        }
      ],
      "name": "KycCompleted",
      "type": "event"
    },
    {
      "anonymous": false,
      "inputs": [
        {
          "indexed": true,
          "internalType": "address",
          "name": "user",
          "type": "address"
        }
      ],
      "name": "KycRevoked",
      "type": "event"
    },
    {
      "anonymous": false,
      "inputs": [
        {
          "indexed": true,
          "internalType": "address",
          "name": "previousOwner",
          "type": "address"
        },
        {
          "indexed": true,
          "internalType": "address",
          "name": "newOwner",
          "type": "address"
        }
      ],
      "name": "OwnershipTransferred",
      "type": "event"
    },
    {
      "inputs": [],
      "name": "owner",
      "outputs": [
        {
          "internalType": "address",
          "name": "",
          "type": "address"
        }
      ],
      "stateMutability": "view",
      "type": "function"
    },
    {
      "inputs": [],
      "name": "renounceOwnership",
      "outputs": [],
      "stateMutability": "nonpayable",
      "type": "function"
    },
    {
      "inputs": [
        {
          "internalType": "address",
          "name": "newOwner",
          "type": "address"
        }
      ],
      "name": "transferOwnership",
      "outputs": [],
      "stateMutability": "nonpayable",
      "type": "function"
    },
    {
      "inputs": [
        {
          "internalType": "address",
          "name": "_addr",
          "type": "address"
        }
      ],
      "name": "setKycCompleted",
      "outputs": [],
      "stateMutability": "nonpayable",
      "type": "function"
    },
    {
      "inputs": [
        {
          "internalType": "address",
          "name": "_addr",
          "type": "address"
        }
      ],
      "name": "setKycRevoked",
      "outputs": [],
      "stateMutability": "nonpayable",
      "type": "function"
    },
    {
      "inputs": [
        {
          "internalType": "address",
          "name": "_addr",
          "type": "address"
        }
      ],
      "name": "kycCompleted",
      "outputs": [
        {
          "internalType": "bool",
          "name": "",
          "type": "bool"
        }
      ],
      "stateMutability": "view",
      "type": "function"
    }
  ],
  "bytecode": "0x608060405234801561000f575f80fd5b50335f73ffffffffffffffffffffffffffffffffffffffff168173ffffffffffffffffffffffffffffffffffffffff1603610081575f6040517f1e4fbdf70000000000000000000000000000000000000000000000000000000081526004016100789190610196565b60405180910390fd5b6100908161009660201b60201c565b506101af565b5f805f9054906101000a900473ffffffffffffffffffffffffffffffffffffffff169050815f806101000a81548173ffffffffffffffffffffffffffffffffffffffff021916908373ffffffffffffffffffffffffffffffffffffffff1602179055508173ffffffffffffffffffffffffffffffffffffffff168173ffffffffffffffffffffffffffffffffffffffff167f8be0079c531659141344cd1fd0a4f28419497f9722a3daafe3b4186f6b6457e060405160405180910390a35050565b5f73ffffffffffffffffffffffffffffffffffffffff82169050919050565b5f61018082610157565b9050919050565b61019081610176565b82525050565b5f6020820190506101a95f830184610187565b92915050565b610747806101bc5f395ff3fe608060405234801561000f575f80fd5b5060043610610060575f3560e01c806370c9aedd14610064578063715018a6146100805780638da5cb5b1461008a578063dc3958cc146100a8578063df235fe4146100c4578063f2fde38b146100f4575b5f80fd5b61007e600480360381019061007991906105ed565b610110565b005b610088610220565b005b610092610233565b60405161009f9190610627565b60405180910390f35b6100c260048036038101906100bd91906105ed565b61025a565b005b6100de60048036038101906100d991906105ed565b61036a565b6040516100eb919061065a565b60405180910390f35b61010e600480360381019061010991906105ed565b6103bc565b005b610118610440565b5f73ffffffffffffffffffffffffffffffffffffffff168173ffffffffffffffffffffffffffffffffffffffff1603610186576040517f08c379a000000000000000000000000000000000000000000000000000000000815260040161017d906106f3565b60405180910390fd5b6001805f8373ffffffffffffffffffffffffffffffffffffffff1673ffffffffffffffffffffffffffffffffffffffff1681526020019081526020015f205f6101000a81548160ff0219169083151502179055508073ffffffffffffffffffffffffffffffffffffffff167f2eb10fde5a2e513a68d529bab7a4bbff4df4243112959318e3bca64c0ea0e79860405160405180910390a250565b610228610440565b6102315f6104c7565b565b5f805f9054906101000a900473ffffffffffffffffffffffffffffffffffffffff16905090565b610262610440565b5f73ffffffffffffffffffffffffffffffffffffffff168173ffffffffffffffffffffffffffffffffffffffff16036102d0576040517f08c379a00000000000000000000000000000000000000000000000000000000081526004016102c7906106f3565b60405180910390fd5b5f60015f8373ffffffffffffffffffffffffffffffffffffffff1673ffffffffffffffffffffffffffffffffffffffff1681526020019081526020015f205f6101000a81548160ff0219169083151502179055508073ffffffffffffffffffffffffffffffffffffffff167ff1c17763556df78bc208351a44a3321884a234d46c5f9a055d0bf24740f5745c60405160405180910390a250565b5f60015f8373ffffffffffffffffffffffffffffffffffffffff1673ffffffffffffffffffffffffffffffffffffffff1681526020019081526020015f205f9054906101000a900460ff169050919050565b6103c4610440565b5f73ffffffffffffffffffffffffffffffffffffffff168173ffffffffffffffffffffffffffffffffffffffff1603610434575f6040517f1e4fbdf700000000000000000000000000000000000000000000000000000000815260040161042b9190610627565b60405180910390fd5b61043d816104c7565b50565b610448610588565b73ffffffffffffffffffffffffffffffffffffffff16610466610233565b73ffffffffffffffffffffffffffffffffffffffff16146104c557610489610588565b6040517f118cdaa70000000000000000000000000000000000000000000000000000000081526004016104bc9190610627565b60405180910390fd5b565b5f805f9054906101000a900473ffffffffffffffffffffffffffffffffffffffff169050815f806101000a81548173ffffffffffffffffffffffffffffffffffffffff021916908373ffffffffffffffffffffffffffffffffffffffff1602179055508173ffffffffffffffffffffffffffffffffffffffff168173ffffffffffffffffffffffffffffffffffffffff167f8be0079c531659141344cd1fd0a4f28419497f9722a3daafe3b4186f6b6457e060405160405180910390a35050565b5f33905090565b5f80fd5b5f73ffffffffffffffffffffffffffffffffffffffff82169050919050565b5f6105bc82610593565b9050919050565b6105cc816105b2565b81146105d6575f80fd5b50565b5f813590506105e7816105c3565b92915050565b5f602082840312156106025761060161058f565b5b5f61060f848285016105d9565b91505092915050565b610621816105b2565b82525050565b5f60208201905061063a5f830184610618565b92915050565b5f8115159050919050565b61065481610640565b82525050565b5f60208201905061066d5f83018461064b565b92915050565b5f82825260208201905092915050565b7f4b7963436f6e74726163743a206164647265737320697320746865207a65726f5f8201527f2061646472657373000000000000000000000000000000000000000000000000602082015250565b5f6106dd602883610673565b91506106e882610683565b604082019050919050565b5f6020820190508181035f83015261070a816106d1565b905091905056fea264697066735822122056c6e6ad971ecb6094b7b8dd9d9d198401169e3e8d865f5b13e3bdf82002389164736f6c63430008140033",
  "immutableReferences": {},
  "source": "// SPDX-License-Identifier: MIT\r\npragma solidity ^0.8.0;\r\n\r\nimport \"@openzeppelin/contracts/access/Ownable.sol\";\r\n\r\ncontract KycContract is Ownable {\r\n    mapping(address => bool) private allowed;\r\n    \r\n    event KycCompleted(address indexed user);\r\n    event KycRevoked(address indexed user);\r\n\r\n    constructor() Ownable(msg.sender) {}\r\n\r\n    function setKycCompleted(address _addr) public onlyOwner {\r\n        require(_addr != address(0), \"KycContract: address is the zero address\");\r\n        allowed[_addr] = true;\r\n        emit KycCompleted(_addr);\r\n    }\r\n\r\n    function setKycRevoked(address _addr) public onlyOwner {\r\n        require(_addr != address(0), \"KycContract: address is the zero address\");\r\n        allowed[_addr] = false;\r\n        emit KycRevoked(_addr);\r\n    }\r\n\r\n    function kycCompleted(address _addr) public view returns(bool) {\r\n        return allowed[_addr];\r\n    }\r\n}",
  "sourcePath": "A:\\AI-ML\\s06+-+tokenization\\Tokenization\\contracts\\KycContract.sol",
  "compiler": {
    "name": "solc",
    "version": "0.8.20+commit.a1b79de6.Emscripten.clang"
  },
  "schemaVersion": "3.4.16",
  "updatedAt": "2025-06-30T18:49:54.971Z",
  "devdoc": {
    "errors": {
      "OwnableInvalidOwner(address)": [
        {
          "details": "The owner is not a valid owner account. (eg. `address(0)`)"
        }
      ],
      "OwnableUnauthorizedAccount(address)": [
        {
          "details": "The caller account is not authorized to perform an operation."
        }
      ]
    },
    "kind": "dev",
    "methods": {
      "owner()": {
        "details": "Returns the address of the current owner."
      },
      "renounceOwnership()": {
        "details": "Leaves the contract without owner. It will not be possible to call `onlyOwner` functions. Can only be called by the current owner. NOTE: Renouncing ownership will leave the contract without an owner, thereby disabling any functionality that is only available to the owner."
      },
      "transferOwnership(address)": {
        "details": "Transfers ownership of the contract to a new account (`newOwner`). Can only be called by the current owner."
      }
    },
    "version": 1
  },
  "userdoc": {
    "kind": "user",
    "methods": {},
    "version": 1
  }
}