{
  "contractName": "MyTokenSale",
  "abi": [
    {
      "inputs": [
        {
          "internalType": "uint256",
          "name": "rate",
          "type": "uint256"
        },
        {
          "internalType": "address payable",
          "name": "wallet",
          "type": "address"
        },
        {
          "internalType": "contract IERC20",
          "name": "token",
          "type": "address"
        },
        {
          "internalType": "contract KycContract",
          "name": "_kyc",
          "type": "address"
        }
      ],
      "stateMutability": "nonpayable",
      "type": "constructor"
    },
    {
      "inputs": [],
      "name": "ReentrancyGuardReentrantCall",
      "type": "error"
    },
    {
      "inputs": [
        {
          "internalType": "address",
          "name": "token",
          "type": "address"
        }
      ],
      "name": "SafeERC20FailedOperation",
      "type": "error"
    },
    {
      "anonymous": false,
      "inputs": [
        {
          "indexed": true,
          "internalType": "address",
          "name": "oldKyc",
          "type": "address"
        },
        {
          "indexed": true,
          "internalType": "address",
          "name": "newKyc",
          "type": "address"
        }
      ],
      "name": "KycContractUpdated",
      "type": "event"
    },
    {
      "anonymous": false,
      "inputs": [
        {
          "indexed": true,
          "internalType": "address",
          "name": "purchaser",
          "type": "address"
        },
        {
          "indexed": true,
          "internalType": "address",
          "name": "beneficiary",
          "type": "address"
        },
        {
          "indexed": false,
          "internalType": "uint256",
          "name": "value",
          "type": "uint256"
        },
        {
          "indexed": false,
          "internalType": "uint256",
          "name": "amount",
          "type": "uint256"
        }
      ],
      "name": "TokensPurchased",
      "type": "event"
    },
    {
      "inputs": [
        {
          "internalType": "address",
          "name": "beneficiary",
          "type": "address"
        }
      ],
      "name": "buyTokens",
      "outputs": [],
      "stateMutability": "payable",
      "type": "function"
    },
    {
      "inputs": [],
      "name": "kyc",
      "outputs": [
        {
          "internalType": "contract KycContract",
          "name": "",
          "type": "address"
        }
      ],
      "stateMutability": "view",
      "type": "function"
    },
    {
      "inputs": [],
      "name": "rate",
      "outputs": [
        {
          "internalType": "uint256",
          "name": "",
          "type": "uint256"
        }
      ],
      "stateMutability": "view",
      "type": "function"
    },
    {
      "inputs": [],
      "name": "token",
      "outputs": [
        {
          "internalType": "contract IERC20",
          "name": "",
          "type": "address"
        }
      ],
      "stateMutability": "view",
      "type": "function"
    },
    {
      "inputs": [],
      "name": "wallet",
      "outputs": [
        {
          "internalType": "address payable",
          "name": "",
          "type": "address"
        }
      ],
      "stateMutability": "view",
      "type": "function"
    },
    {
      "inputs": [],
      "name": "weiRaised",
      "outputs": [
        {
          "internalType": "uint256",
          "name": "",
          "type": "uint256"
        }
      ],
      "stateMutability": "view",
      "type": "function"
    },
    {
      "stateMutability": "payable",
      "type": "receive"
    },
    {
      "inputs": [
        {
          "internalType": "contract KycContract",
          "name": "_kyc",
          "type": "address"
        }
      ],
      "name": "updateKycContract",
      "outputs": [],
      "stateMutability": "nonpayable",
      "type": "function"
    },
    {
      "inputs": [],
      "name": "getKycContract",
      "outputs": [
        {
          "internalType": "address",
          "name": "",
          "type": "address"
        }
      ],
      "stateMutability": "view",
      "type": "function"
    }
  ],
  "bytecode": "0x608060405234801562000010575f80fd5b50604051620014e7380380620014e78339818101604052810190620000369190620003e0565b83838360015f819055505f831162000085576040517f08c379a00000000000000000000000000000000000000000000000000000000081526004016200007c90620004ad565b60405180910390fd5b5f73ffffffffffffffffffffffffffffffffffffffff168273ffffffffffffffffffffffffffffffffffffffff1603620000f6576040517f08c379a0000000000000000000000000000000000000000000000000000000008152600401620000ed9062000541565b60405180910390fd5b5f73ffffffffffffffffffffffffffffffffffffffff168173ffffffffffffffffffffffffffffffffffffffff160362000167576040517f08c379a00000000000000000000000000000000000000000000000000000000081526004016200015e90620005d5565b60405180910390fd5b826003819055508160025f6101000a81548173ffffffffffffffffffffffffffffffffffffffff021916908373ffffffffffffffffffffffffffffffffffffffff1602179055508060015f6101000a81548173ffffffffffffffffffffffffffffffffffffffff021916908373ffffffffffffffffffffffffffffffffffffffff1602179055505050505f73ffffffffffffffffffffffffffffffffffffffff168173ffffffffffffffffffffffffffffffffffffffff160362000262576040517f08c379a0000000000000000000000000000000000000000000000000000000008152600401620002599062000669565b60405180910390fd5b8060055f6101000a81548173ffffffffffffffffffffffffffffffffffffffff021916908373ffffffffffffffffffffffffffffffffffffffff1602179055505050505062000689565b5f80fd5b5f819050919050565b620002c481620002b0565b8114620002cf575f80fd5b50565b5f81519050620002e281620002b9565b92915050565b5f73ffffffffffffffffffffffffffffffffffffffff82169050919050565b5f6200031382620002e8565b9050919050565b620003258162000307565b811462000330575f80fd5b50565b5f8151905062000343816200031a565b92915050565b5f6200035582620002e8565b9050919050565b5f620003688262000349565b9050919050565b6200037a816200035c565b811462000385575f80fd5b50565b5f8151905062000398816200036f565b92915050565b5f620003aa8262000349565b9050919050565b620003bc816200039e565b8114620003c7575f80fd5b50565b5f81519050620003da81620003b1565b92915050565b5f805f8060808587031215620003fb57620003fa620002ac565b5b5f6200040a87828801620002d2565b94505060206200041d8782880162000333565b9350506040620004308782880162000388565b92505060606200044387828801620003ca565b91505092959194509250565b5f82825260208201905092915050565b7f43726f776473616c653a207261746520697320300000000000000000000000005f82015250565b5f620004956014836200044f565b9150620004a2826200045f565b602082019050919050565b5f6020820190508181035f830152620004c68162000487565b9050919050565b7f43726f776473616c653a2077616c6c657420697320746865207a65726f2061645f8201527f6472657373000000000000000000000000000000000000000000000000000000602082015250565b5f620005296025836200044f565b91506200053682620004cd565b604082019050919050565b5f6020820190508181035f8301526200055a816200051b565b9050919050565b7f43726f776473616c653a20746f6b656e20697320746865207a65726f206164645f8201527f7265737300000000000000000000000000000000000000000000000000000000602082015250565b5f620005bd6024836200044f565b9150620005ca8262000561565b604082019050919050565b5f6020820190508181035f830152620005ee81620005af565b9050919050565b7f4d79546f6b656e53616c653a204b594320636f6e7472616374206973207468655f8201527f207a65726f206164647265737300000000000000000000000000000000000000602082015250565b5f62000651602d836200044f565b91506200065e82620005f5565b604082019050919050565b5f6020820190508181035f830152620006828162000643565b9050919050565b610e5080620006975f395ff3fe60806040526004361061007e575f3560e01c806358edac181161004d57806358edac181461013f57806390d6b45f14610169578063ec8ac4d814610193578063fc0c546a146101af57610095565b80632c4e722e146100995780634042b66f146100c3578063466e9c0d146100ed578063521eb2731461011557610095565b366100955761009361008e6101d9565b6101e0565b005b5f80fd5b3480156100a4575f80fd5b506100ad6102b7565b6040516100ba9190610893565b60405180910390f35b3480156100ce575f80fd5b506100d76102c0565b6040516100e49190610893565b60405180910390f35b3480156100f8575f80fd5b50610113600480360381019061010e919061091b565b6102c9565b005b348015610120575f80fd5b506101296103fa565b6040516101369190610966565b60405180910390f35b34801561014a575f80fd5b50610153610422565b604051610160919061098e565b60405180910390f35b348015610174575f80fd5b5061017d61044a565b60405161018a9190610a02565b60405180910390f35b6101ad60048036038101906101a89190610a45565b6101e0565b005b3480156101ba575f80fd5b506101c361046f565b6040516101d09190610a90565b60405180910390f35b5f33905090565b6101e8610497565b5f3490506101f682826104db565b5f610200826105c1565b9050816004546102109190610ad6565b60048190555061022083826105d7565b8273ffffffffffffffffffffffffffffffffffffffff1661023f6101d9565b73ffffffffffffffffffffffffffffffffffffffff167f6faf93231a456e552dbc9961f58d9713ee4f2e69d15f1975b050ef0911053a7b8484604051610286929190610b09565b60405180910390a361029883836105e5565b6102a06105e9565b6102aa8383610650565b50506102b4610654565b50565b5f600354905090565b5f600454905090565b5f73ffffffffffffffffffffffffffffffffffffffff168173ffffffffffffffffffffffffffffffffffffffff1603610337576040517f08c379a000000000000000000000000000000000000000000000000000000000815260040161032e90610bb0565b60405180910390fd5b5f60055f9054906101000a900473ffffffffffffffffffffffffffffffffffffffff1690508160055f6101000a81548173ffffffffffffffffffffffffffffffffffffffff021916908373ffffffffffffffffffffffffffffffffffffffff1602179055508173ffffffffffffffffffffffffffffffffffffffff168173ffffffffffffffffffffffffffffffffffffffff167f778783884a57891e576849699755ca80b5ca72b996d1967fada8ec9acbe982b660405160405180910390a35050565b5f60025f9054906101000a900473ffffffffffffffffffffffffffffffffffffffff16905090565b5f60055f9054906101000a900473ffffffffffffffffffffffffffffffffffffffff16905090565b60055f9054906101000a900473ffffffffffffffffffffffffffffffffffffffff1681565b5f60015f9054906101000a900473ffffffffffffffffffffffffffffffffffffffff16905090565b60025f54036104d2576040517f3ee5aeb500000000000000000000000000000000000000000000000000000000815260040160405180910390fd5b60025f81905550565b6104e5828261065d565b60055f9054906101000a900473ffffffffffffffffffffffffffffffffffffffff1673ffffffffffffffffffffffffffffffffffffffff1663df235fe4336040518263ffffffff1660e01b815260040161053f919061098e565b602060405180830381865afa15801561055a573d5f803e3d5ffd5b505050506040513d601f19601f8201168201806040525081019061057e9190610c03565b6105bd576040517f08c379a00000000000000000000000000000000000000000000000000000000081526004016105b490610c9e565b60405180910390fd5b5050565b5f600354826105d09190610cbc565b9050919050565b6105e18282610711565b5050565b5050565b60025f9054906101000a900473ffffffffffffffffffffffffffffffffffffffff1673ffffffffffffffffffffffffffffffffffffffff166108fc3490811502906040515f60405180830381858888f1935050505015801561064d573d5f803e3d5ffd5b50565b5050565b60015f81905550565b5f73ffffffffffffffffffffffffffffffffffffffff168273ffffffffffffffffffffffffffffffffffffffff16036106cb576040517f08c379a00000000000000000000000000000000000000000000000000000000081526004016106c290610d6d565b60405180910390fd5b5f810361070d576040517f08c379a000000000000000000000000000000000000000000000000000000000815260040161070490610dd5565b60405180910390fd5b5050565b61075d828260015f9054906101000a900473ffffffffffffffffffffffffffffffffffffffff1673ffffffffffffffffffffffffffffffffffffffff166107619092919063ffffffff16565b5050565b6107db838473ffffffffffffffffffffffffffffffffffffffff1663a9059cbb8585604051602401610794929190610df3565b604051602081830303815290604052915060e01b6020820180517bffffffffffffffffffffffffffffffffffffffffffffffffffffffff83818316178352505050506107e0565b505050565b5f8060205f8451602086015f885af1806107ff576040513d5f823e3d81fd5b3d92505f519150505f8214610818576001811415610833565b5f8473ffffffffffffffffffffffffffffffffffffffff163b145b1561087557836040517f5274afe700000000000000000000000000000000000000000000000000000000815260040161086c919061098e565b60405180910390fd5b50505050565b5f819050919050565b61088d8161087b565b82525050565b5f6020820190506108a65f830184610884565b92915050565b5f80fd5b5f73ffffffffffffffffffffffffffffffffffffffff82169050919050565b5f6108d9826108b0565b9050919050565b5f6108ea826108cf565b9050919050565b6108fa816108e0565b8114610904575f80fd5b50565b5f81359050610915816108f1565b92915050565b5f602082840312156109305761092f6108ac565b5b5f61093d84828501610907565b91505092915050565b5f610950826108b0565b9050919050565b61096081610946565b82525050565b5f6020820190506109795f830184610957565b92915050565b610988816108cf565b82525050565b5f6020820190506109a15f83018461097f565b92915050565b5f819050919050565b5f6109ca6109c56109c0846108b0565b6109a7565b6108b0565b9050919050565b5f6109db826109b0565b9050919050565b5f6109ec826109d1565b9050919050565b6109fc816109e2565b82525050565b5f602082019050610a155f8301846109f3565b92915050565b610a24816108cf565b8114610a2e575f80fd5b50565b5f81359050610a3f81610a1b565b92915050565b5f60208284031215610a5a57610a596108ac565b5b5f610a6784828501610a31565b91505092915050565b5f610a7a826109d1565b9050919050565b610a8a81610a70565b82525050565b5f602082019050610aa35f830184610a81565b92915050565b7f4e487b71000000000000000000000000000000000000000000000000000000005f52601160045260245ffd5b5f610ae08261087b565b9150610aeb8361087b565b9250828201905080821115610b0357610b02610aa9565b5b92915050565b5f604082019050610b1c5f830185610884565b610b296020830184610884565b9392505050565b5f82825260208201905092915050565b7f4d79546f6b656e53616c653a204b594320636f6e7472616374206973207468655f8201527f207a65726f206164647265737300000000000000000000000000000000000000602082015250565b5f610b9a602d83610b30565b9150610ba582610b40565b604082019050919050565b5f6020820190508181035f830152610bc781610b8e565b9050919050565b5f8115159050919050565b610be281610bce565b8114610bec575f80fd5b50565b5f81519050610bfd81610bd9565b92915050565b5f60208284031215610c1857610c176108ac565b5b5f610c2584828501610bef565b91505092915050565b7f4d79546f6b656e53616c653a204b5943206e6f7420636f6d706c657465642c205f8201527f7075726368617365206e6f7420616c6c6f776564000000000000000000000000602082015250565b5f610c88603483610b30565b9150610c9382610c2e565b604082019050919050565b5f6020820190508181035f830152610cb581610c7c565b9050919050565b5f610cc68261087b565b9150610cd18361087b565b9250828202610cdf8161087b565b91508282048414831517610cf657610cf5610aa9565b5b5092915050565b7f43726f776473616c653a2062656e656669636961727920697320746865207a655f8201527f726f206164647265737300000000000000000000000000000000000000000000602082015250565b5f610d57602a83610b30565b9150610d6282610cfd565b604082019050919050565b5f6020820190508181035f830152610d8481610d4b565b9050919050565b7f43726f776473616c653a20776569416d6f756e742069732030000000000000005f82015250565b5f610dbf601983610b30565b9150610dca82610d8b565b602082019050919050565b5f6020820190508181035f830152610dec81610db3565b9050919050565b5f604082019050610e065f83018561097f565b610e136020830184610884565b939250505056fea2646970667358221220fcacdb55ddd736693f3bbca545d3713201483145f4f375e2b53cb1f1e8073fa964736f6c63430008140033",
  "immutableReferences": {},
  "source": "// SPDX-License-Identifier: MIT\r\npragma solidity ^0.8.0;\r\n\r\nimport \"./Crowdsale.sol\";\r\nimport \"./KycContract.sol\";\r\n\r\ncontract MyTokenSale is Crowdsale {\r\n\r\n    KycContract public kyc;\r\n\r\n    event KycContractUpdated(address indexed oldKyc, address indexed newKyc);\r\n\r\n    constructor(\r\n        uint256 rate,    // rate in TKNbits\r\n        address payable wallet,\r\n        IERC20 token,\r\n        KycContract _kyc\r\n    )\r\n        Crowdsale(rate, wallet, token)\r\n    {\r\n        require(address(_kyc) != address(0), \"MyTokenSale: KYC contract is the zero address\");\r\n        kyc = _kyc;\r\n    }\r\n\r\n    function _preValidatePurchase(address beneficiary, uint256 weiAmount) internal view override {\r\n        super._preValidatePurchase(beneficiary, weiAmount);\r\n        require(kyc.kycCompleted(msg.sender), \"MyTokenSale: KYC not completed, purchase not allowed\");\r\n    }\r\n\r\n    /**\r\n     * @dev Allows owner to update the KYC contract address\r\n     * @param _kyc New KYC contract address\r\n     */\r\n    function updateKycContract(KycContract _kyc) external {\r\n        // Note: Add access control here if needed (e.g., onlyOwner modifier)\r\n        require(address(_kyc) != address(0), \"MyTokenSale: KYC contract is the zero address\");\r\n        \r\n        address oldKyc = address(kyc);\r\n        kyc = _kyc;\r\n        \r\n        emit KycContractUpdated(oldKyc, address(_kyc));\r\n    }\r\n\r\n    /**\r\n     * @dev Returns the current KYC contract address\r\n     */\r\n    function getKycContract() external view returns (address) {\r\n        return address(kyc);\r\n    }\r\n}",
  "sourcePath": "A:\\AI-ML\\s06+-+tokenization\\Tokenization\\contracts\\MyTokenSale.sol",
  "compiler": {
    "name": "solc",
    "version": "0.8.20+commit.a1b79de6.Emscripten.clang"
  },
  "schemaVersion": "3.4.16",
  "updatedAt": "2025-06-30T18:49:54.982Z",
  "devdoc": {
    "errors": {
      "ReentrancyGuardReentrantCall()": [
        {
          "details": "Unauthorized reentrant call."
        }
      ],
      "SafeERC20FailedOperation(address)": [
        {
          "details": "An operation with an ERC-20 token failed."
        }
      ]
    },
    "events": {
      "TokensPurchased(address,address,uint256,uint256)": {
        "params": {
          "amount": "amount of tokens purchased",
          "beneficiary": "who got the tokens",
          "purchaser": "who paid for the tokens",
          "value": "weis paid for purchase"
        }
      }
    },
    "kind": "dev",
    "methods": {
      "buyTokens(address)": {
        "details": "low level token purchase ***DO NOT OVERRIDE*** This function has a non-reentrancy guard, so it shouldn't be called by another `nonReentrant` function.",
        "params": {
          "beneficiary": "Recipient of the token purchase"
        }
      },
      "getKycContract()": {
        "details": "Returns the current KYC contract address"
      },
      "rate()": {
        "returns": {
          "_0": "the number of token units a buyer gets per wei."
        }
      },
      "token()": {
        "returns": {
          "_0": "the token being sold."
        }
      },
      "updateKycContract(address)": {
        "details": "Allows owner to update the KYC contract address",
        "params": {
          "_kyc": "New KYC contract address"
        }
      },
      "wallet()": {
        "returns": {
          "_0": "the address where funds are collected."
        }
      },
      "weiRaised()": {
        "returns": {
          "_0": "the amount of wei raised."
        }
      }
    },
    "version": 1
  },
  "userdoc": {
    "events": {
      "TokensPurchased(address,address,uint256,uint256)": {
        "notice": "Event for token purchase logging"
      }
    },
    "kind": "user",
    "methods": {},
    "version": 1
  }
}